:020000040800F2
:10000000F80A0020C9010008A70300089F030008A0
:10001000A30300087B020008E107000800000000BD
:100020000000000000000000000000006906000859
:100030007F02000800000000450600087D07000858
:10004000E3010008E3010008E3010008E301000800
:10005000E3010008E3010008E3010008E3010008F0
:10006000E3010008E3010008E3010008E3010008E0
:10007000E3010008E3010008E3010008E3010008D0
:10008000E3010008E3010008E3010008E3010008C0
:10009000E3010008E3010008E3010008E3010008B0
:1000A000E3010008E3010008E3010008E3010008A0
:1000B000E3010008E3010008E3010008E301000890
:1000C000E3010008E3010008E3010008E301000880
:1000D000E3010008E3010008E3010008E301000870
:1000E000E3010008E3010008E301000800F002F862
:1000F00000F05AF80AA090E8000C82448344AAF168
:100100000107DA4501D100F04FF8AFF2090EBAE865
:100110000F0013F0010F18BFFB1A43F0010318473B
:1001200078070000980700000A444FF0000C10F810
:10013000013B13F0070408BF10F8014B1D1108BF65
:1001400010F8015B641E05D010F8016B641E01F805
:10015000016BF9D113F0080F1EBF10F8014BAD1C55
:100160000C1B09D16D1E58BF01F801CBFAD505E073
:1001700014F8016B01F8016B6D1EF9D59142D6D3CD
:10018000704700000023002400250026103A28BFF5
:1001900078C1FBD8520728BF30C148BF0B607047F9
:1001A0001FB51FBD10B510BD00F031F81146FFF7A7
:1001B000F7FF00F05FFB00F04FF803B4FFF7F2FF2A
:1001C00003BC00F053F80000094880470948004785
:1001D000FEE7FEE7FEE7FEE7FEE7FEE7FEE7FEE7F7
:1001E000FEE7FEE704480549054A064B7047000054
:1001F00081070008ED000008F8040020F80A00203C
:10020000F8060020F80600207047704770477546D2
:1002100000F028F8AE4605006946534620F0070076
:10022000854618B020B5FFF7DDFFBDE820404FF050
:1002300000064FF000074FF000084FF0000B21F0D0
:100240000701AC46ACE8C009ACE8C009ACE8C0099D
:10025000ACE8C0098D4670470446AFF300802046E5
:10026000FFF7ABFF004870479804002001491820B1
:10027000ABBEFEE726000200704700BFFEE77047F6
:100280002DE9F0410246002500260020002300242D
:10029000002791F803C00CF00F0591F803C00CF093
:1002A000100CBCF1000F03D091F802C04CEA050518
:1002B00091F800C0BCF1000F31D0146800202BE091
:1002C0004FF0010C0CFA00F3B1F800C00CEA030681
:1002D0009E4220D183004FF00F0C0CFA03F7BC4371
:1002E00005FA03FC4CEA040491F803C0BCF1280FA2
:1002F00006D14FF0010C0CFA00FCC2F814C00AE061
:1003000091F803C0BCF1480F05D14FF0010C0CFA75
:1003100000FCC2F810C0401C0828D1D31460B1F80A
:1003200000C0BCF1FF0F34DD546800202EE000F166
:10033000080C4FF0010808FA0CF3B1F800C00CEA01
:1003400003069E4221D183004FF00F0C0CFA03F7F5
:10035000BC4305FA03FC4CEA040491F803C0BCF169
:10036000280F05D100F1080C08FA0CF8C2F8148027
:1003700091F803C0BCF1480F07D100F1080C4FF011
:10038000010808FA0CF8C2F81080401C0828CED3E7
:100390005460BDE8F081416170470161704700BF62
:1003A000FEE700BFFEE7704770B5002419E004F1D6
:1003B000B001C8B2002100F00DF90021084600F09C
:1003C00009F90021102000F005F9002505E00121C0
:1003D000002000F0FFF8681CC5B2802DF7DB601C20
:1003E000C4B2082CE3DB70BD2DE9F05F06460F4672
:1003F00090461C46DDF828A04FF0000BE11704EBF7
:100400005171C910A4EBC10131B92046E11704EBC9
:100410005171C1F3C70506E02046E11704EB5171A5
:10042000C910491CCDB23D4615E02946304600F0C2
:10043000B9F8B1460BE059460BF1010B1AF801006F
:10044000012100F0C7F809F1010000F0FF09C145E2
:10045000F1DD681CC5B2A542E7DDBDE8F09F0000F4
:1004600008B50121042000F0EFF81F20ADF80000CE
:1004700010208DF8030003208DF8020069464848DB
:10048000FFF7FEFE04214648FFF787FF642000F0D7
:10049000CBF904214248FFF77EFFC82000F0C4F9E1
:1004A00004213F48FFF779FF0021AE2000F092F8C9
:1004B0000021084600F08EF80021102000F08AF894
:1004C0000021402000F086F80021812000F082F811
:1004D0000021CF2000F07EF80021A12000F07AF862
:1004E0000021C82000F076F80021A62000F072F864
:1004F0000021A82000F06EF800213F2000F06AF8EB
:100500000021D32000F066F80021084600F062F8D0
:100510000021D52000F05EF80021802000F05AF87C
:100520000021D92000F056F80021F12000F052F807
:100530000021DA2000F04EF80021122000F04AF8E5
:100540000021DB2000F046F80021402000F042F8B6
:100550000021202000F03EF80021022000F03AF8AF
:1005600000218D2000F036F80021142000F032F830
:100570000021A42000F02EF80021A62000F02AF887
:100580000021AF2000F026F80021AF2000F022F873
:10059000FFF70AFF0021084600F004F808BD00003C
:1005A0000008014070B504460D4605F1B001C8B21F
:1005B000002100F00FF8102141EA1410002100F092
:1005C00009F804F00F0141F00100002100F002F8E9
:1005D00070BD000070B504460E4626B108211848CB
:1005E000FFF7DBFE03E008211548FFF7D4FE1021DA
:1005F0001348FFF7D0FE002517E001211048FFF750
:10060000CAFE04F0800020B102210D48FFF7C5FEAC
:1006100003E002210A48FFF7BEFE01210848FFF768
:10062000BCFE6006040E681CC5B2082DE5DB102177
:100630000348FFF7B2FE08210148FFF7AEFE70BD88
:10064000000801407047000029B1064A9269024340
:10065000044B9A6104E0034A92698243014B9A6118
:100660007047000000100240704710B500F002F81B
:1006700010BD00000CB500200190009033480068C8
:1006800040F480303149086000BF3048006800F411
:10069000003000900198401C0190009818B9019812
:1006A000B0F5A06FF1D12948006800F4003010B116
:1006B0000120009001E0002000900098012843D123
:1006C0002348006840F0100021490860084600688F
:1006D00020F0030008600846006840F0020008604F
:1006E0001A4840681949486008464068486008460A
:1006F000406840F4806048600846406820F47C1000
:1007000048600846406840F4E810486008460068C1
:1007100040F08070086000BF0C48006800F0007076
:100720000028F9D00948406820F0030007494860D4
:100730000846406840F00200486000BF0348406837
:1007400000F00C000828F9D10CBD00000010024098
:1007500000200240042808D14FF0E021096941F04F
:1007600004014FF0E022116107E04FF0E021096938
:1007700021F004014FF0E022116170477047000042
:1007800010B51348006840F00100114908600846A0
:100790004068104908400E494860084600680E4904
:1007A00008400B4908600846006820F48020086073
:1007B0000846406820F4FE0048604FF41F0088603F
:1007C000FFF753FF4FF000600449086010BD0000C0
:1007D000001002400000FFF8FFFFF6FE08ED00E009
:1007E00000BFFEE710B56FF00400FFF7B3FF0A4843
:1007F00000680A49B0FBF1F0094908700846007822
:1008000000EB4001C1EBC0104FF6FF7101EAC000E0
:100810000449088010BD00000000002000127A008A
:1008200094040020960400200146114A12884A438D
:100830004FF0E0235A6100229A611A46126942F091
:1008400001021A6100BF4FF0E022106900F00102BE
:100850001AB100F48032002AF5D04FF0E02212697C
:1008600022F001024FF0E0231A6100229A617047E2
:100870009604002008B5FFF7B5FFFFF7F1FD054826
:1008800007237F22002100900846FFF7ADFD00BF3F
:10089000FEE7000094000020B808000800000020D7
:1008A0009804000028010008480A00089804002065
:1008B00060060000840100081184A24A04100901A6
:1008C00002030406070809000F118060F8074020A2
:1008D000180F08C808082818220112FF17100C0367
:1008E00040807F0B10010620171010F01F10F00041
:1008F0000911808282E2928A86801F4022150816A2
:100900006108194001140A84FF010808653F3F0F80
:100910000707030101CD03070F1F8071000C174269
:100920004A6ACF4AFACAEF5A4A42180A80C0E0F02F
:10093000F0F0F8F8F8061DE0C0C0E00E690DDA80AE
:100940002A3A801F6808F8F8FCFCFCF8E0016AC04D
:1009500027091380199C215A030801142AFC2D1A17
:10096000871D19C51B0F3F012B0F072B2B010318E8
:1009700092FE2D1C3E3E7F127808F7E3E3C1C1E3EF
:10098000F301996C091380113DE0A0B0A004011897
:100990001B071F59AAFCEE1D80C0E0F09704107FD2
:1009A0001F0719A4180907070F0F1F1F1F0FD17961
:1009B000010919801F080B0A0A0A3F04530B08207B
:1009C00008F0F0808080F0F0BAD858180903070FBB
:1009D0001F3F3F7EFC01100A7E3F3F1F0F0713F1B0
:1009E000C01C80F070B62BF03037293A75B0B0F0EB
:1009F000601AF04819DC29492EF0F03030F0DEC9D9
:100A00008079CEE12A0FB91B0F0F09215E02010187
:100A10000202BD09112A140E0F012A03052D0C0C28
:100A20000E073A150D0D0F072A4001293E4C070EFF
:100A300007491D0F03070DDDCA80802CFFFFFECE86
:080A40000966017AFE7741000E
:04000005080000ED02
:00000001FF
